{
  "_format": "hh-sol-artifact-1",
  "contractName": "Ludo",
  "sourceName": "contracts/Ludo.sol",
  "abi": [
    {
      "anonymous": false,
      "inputs": [
        {
          "indexed": true,
          "internalType": "uint256",
          "name": "gameId",
          "type": "uint256"
        },
        {
          "indexed": false,
          "internalType": "address",
          "name": "player",
          "type": "address"
        },
        {
          "indexed": false,
          "internalType": "uint8",
          "name": "roll",
          "type": "uint8"
        }
      ],
      "name": "DiceRolled",
      "type": "event"
    },
    {
      "anonymous": false,
      "inputs": [
        {
          "indexed": true,
          "internalType": "uint256",
          "name": "gameId",
          "type": "uint256"
        },
        {
          "indexed": false,
          "internalType": "address",
          "name": "creator",
          "type": "address"
        }
      ],
      "name": "GameCreated",
      "type": "event"
    },
    {
      "anonymous": false,
      "inputs": [
        {
          "indexed": true,
          "internalType": "uint256",
          "name": "gameId",
          "type": "uint256"
        },
        {
          "indexed": false,
          "internalType": "address",
          "name": "winner",
          "type": "address"
        }
      ],
      "name": "GameWon",
      "type": "event"
    },
    {
      "anonymous": false,
      "inputs": [
        {
          "indexed": true,
          "internalType": "uint256",
          "name": "gameId",
          "type": "uint256"
        },
        {
          "indexed": false,
          "internalType": "address",
          "name": "player",
          "type": "address"
        },
        {
          "indexed": false,
          "internalType": "uint256",
          "name": "fromPosition",
          "type": "uint256"
        },
        {
          "indexed": false,
          "internalType": "uint256",
          "name": "toPosition",
          "type": "uint256"
        }
      ],
      "name": "PieceMoved",
      "type": "event"
    },
    {
      "anonymous": false,
      "inputs": [
        {
          "indexed": true,
          "internalType": "uint256",
          "name": "gameId",
          "type": "uint256"
        },
        {
          "indexed": false,
          "internalType": "address",
          "name": "player",
          "type": "address"
        },
        {
          "indexed": false,
          "internalType": "string",
          "name": "color",
          "type": "string"
        }
      ],
      "name": "PlayerJoined",
      "type": "event"
    },
    {
      "inputs": [],
      "name": "BOARD_SIZE",
      "outputs": [
        {
          "internalType": "uint256",
          "name": "",
          "type": "uint256"
        }
      ],
      "stateMutability": "view",
      "type": "function"
    },
    {
      "inputs": [],
      "name": "HOME_DISTANCE",
      "outputs": [
        {
          "internalType": "uint256",
          "name": "",
          "type": "uint256"
        }
      ],
      "stateMutability": "view",
      "type": "function"
    },
    {
      "inputs": [],
      "name": "MAX_PLAYERS",
      "outputs": [
        {
          "internalType": "uint256",
          "name": "",
          "type": "uint256"
        }
      ],
      "stateMutability": "view",
      "type": "function"
    },
    {
      "inputs": [
        {
          "internalType": "string[]",
          "name": "_colors",
          "type": "string[]"
        }
      ],
      "name": "createGame",
      "outputs": [
        {
          "internalType": "uint256",
          "name": "",
          "type": "uint256"
        }
      ],
      "stateMutability": "nonpayable",
      "type": "function"
    },
    {
      "inputs": [],
      "name": "gameId",
      "outputs": [
        {
          "internalType": "uint256",
          "name": "",
          "type": "uint256"
        }
      ],
      "stateMutability": "view",
      "type": "function"
    },
    {
      "inputs": [
        {
          "internalType": "uint256",
          "name": "",
          "type": "uint256"
        },
        {
          "internalType": "address",
          "name": "",
          "type": "address"
        }
      ],
      "name": "gamePlayers",
      "outputs": [
        {
          "internalType": "string",
          "name": "color",
          "type": "string"
        },
        {
          "internalType": "bool",
          "name": "isActive",
          "type": "bool"
        },
        {
          "internalType": "uint256",
          "name": "finishedPieces",
          "type": "uint256"
        },
        {
          "internalType": "address",
          "name": "playerAddress",
          "type": "address"
        }
      ],
      "stateMutability": "view",
      "type": "function"
    },
    {
      "inputs": [
        {
          "internalType": "uint256",
          "name": "",
          "type": "uint256"
        }
      ],
      "name": "games",
      "outputs": [
        {
          "internalType": "uint256",
          "name": "id",
          "type": "uint256"
        },
        {
          "internalType": "uint8",
          "name": "numberOfPlayers",
          "type": "uint8"
        },
        {
          "internalType": "uint8",
          "name": "nextColorIndex",
          "type": "uint8"
        },
        {
          "internalType": "uint8",
          "name": "currentTurn",
          "type": "uint8"
        },
        {
          "internalType": "bool",
          "name": "isActive",
          "type": "bool"
        },
        {
          "internalType": "address",
          "name": "winner",
          "type": "address"
        }
      ],
      "stateMutability": "view",
      "type": "function"
    },
    {
      "inputs": [
        {
          "internalType": "uint256",
          "name": "_gameId",
          "type": "uint256"
        }
      ],
      "name": "getGameState",
      "outputs": [
        {
          "internalType": "uint8",
          "name": "numberOfPlayers",
          "type": "uint8"
        },
        {
          "internalType": "uint8",
          "name": "currentTurn",
          "type": "uint8"
        },
        {
          "internalType": "bool",
          "name": "isActive",
          "type": "bool"
        },
        {
          "internalType": "address",
          "name": "winner",
          "type": "address"
        }
      ],
      "stateMutability": "view",
      "type": "function"
    },
    {
      "inputs": [
        {
          "internalType": "uint256",
          "name": "_gameId",
          "type": "uint256"
        },
        {
          "internalType": "address",
          "name": "_player",
          "type": "address"
        }
      ],
      "name": "getPlayerState",
      "outputs": [
        {
          "internalType": "string",
          "name": "color",
          "type": "string"
        },
        {
          "internalType": "bool",
          "name": "isActive",
          "type": "bool"
        },
        {
          "internalType": "uint256[]",
          "name": "piecePositions",
          "type": "uint256[]"
        },
        {
          "internalType": "uint256",
          "name": "finishedPieces",
          "type": "uint256"
        }
      ],
      "stateMutability": "view",
      "type": "function"
    },
    {
      "inputs": [
        {
          "internalType": "address",
          "name": "",
          "type": "address"
        },
        {
          "internalType": "uint256",
          "name": "",
          "type": "uint256"
        }
      ],
      "name": "hasJoinedGame",
      "outputs": [
        {
          "internalType": "bool",
          "name": "",
          "type": "bool"
        }
      ],
      "stateMutability": "view",
      "type": "function"
    },
    {
      "inputs": [
        {
          "internalType": "uint256",
          "name": "_gameId",
          "type": "uint256"
        }
      ],
      "name": "joinGame",
      "outputs": [],
      "stateMutability": "nonpayable",
      "type": "function"
    },
    {
      "inputs": [
        {
          "internalType": "uint256",
          "name": "_gameId",
          "type": "uint256"
        },
        {
          "internalType": "uint8",
          "name": "_pieceIndex",
          "type": "uint8"
        }
      ],
      "name": "playTurn",
      "outputs": [],
      "stateMutability": "nonpayable",
      "type": "function"
    }
  ],
  "bytecode": "0x608060405234801561001057600080fd5b50612bbb806100206000396000f3fe608060405234801561001057600080fd5b50600436106100b45760003560e01c8063b20bfbb911610071578063b20bfbb9146101a9578063d7c81b55146101dc578063dc4a3e95146101fa578063efaa55a014610218578063f58d4f2614610234578063ffde0c7414610264576100b4565b806301e2befa146100b9578063117a5b90146100e95780633ce73f4b1461011e5780634411b3eb1461013a57806362e2961b146101585780639d0601cc1461018b575b600080fd5b6100d360048036038101906100ce91906118ce565b610297565b6040516100e09190611929565b60405180910390f35b61010360048036038101906100fe9190611944565b6102c6565b604051610115969594939291906119ab565b60405180910390f35b61013860048036038101906101339190611a38565b610356565b005b610142610769565b60405161014f9190611a78565b60405180910390f35b610172600480360381019061016d9190611a93565b61076e565b6040516101829493929190611b63565b60405180910390f35b610193610860565b6040516101a09190611a78565b60405180910390f35b6101c360048036038101906101be9190611a93565b610865565b6040516101d39493929190611c6d565b60405180910390f35b6101e46109cf565b6040516101f19190611a78565b60405180910390f35b6102026109d5565b60405161020f9190611a78565b60405180910390f35b610232600480360381019061022d9190611944565b6109da565b005b61024e60048036038101906102499190611edb565b610ede565b60405161025b9190611a78565b60405180910390f35b61027e60048036038101906102799190611944565b610fda565b60405161028e9493929190611f24565b60405180910390f35b60046020528160005260406000206020528060005260406000206000915091509054906101000a900460ff1681565b60026020528060005260406000206000915090508060000154908060010160009054906101000a900460ff16908060070160009054906101000a900460ff16908060070160019054906101000a900460ff16908060070160029054906101000a900460ff16908060070160039054906101000a900473ffffffffffffffffffffffffffffffffffffffff16905086565b600460003373ffffffffffffffffffffffffffffffffffffffff1673ffffffffffffffffffffffffffffffffffffffff168152602001908152602001600020600083815260200190815260200160002060009054906101000a900460ff166103f3576040517f08c379a00000000000000000000000000000000000000000000000000000000081526004016103ea90611fb5565b60405180910390fd5b60048160ff1610610439576040517f08c379a000000000000000000000000000000000000000000000000000000000815260040161043090612021565b60405180910390fd5b600060026000848152602001908152602001600020905060006003600085815260200190815260200160002060003373ffffffffffffffffffffffffffffffffffffffff1673ffffffffffffffffffffffffffffffffffffffff16815260200190815260200160002090508160070160029054906101000a900460ff166104f5576040517f08c379a00000000000000000000000000000000000000000000000000000000081526004016104ec9061208d565b60405180910390fd5b3373ffffffffffffffffffffffffffffffffffffffff16826003018360070160019054906101000a900460ff1660ff1660048110610536576105356120ad565b5b0160009054906101000a900473ffffffffffffffffffffffffffffffffffffffff1673ffffffffffffffffffffffffffffffffffffffff16146105ae576040517f08c379a00000000000000000000000000000000000000000000000000000000081526004016105a590612128565b60405180910390fd5b60006105b8611062565b9050847f1701fdea8aa3a219ddfea8b4cf993f7828c6a5300030a17da093bafa0b3155d133836040516105ec929190612148565b60405180910390a2816002018460ff168154811061060d5761060c6120ad565b5b90600052602060002090602091828204019190069054906101000a900460ff161561064e5760068160ff1603610649576106488583866110d6565b5b61065b565b61065a85838684611193565b5b60048260040154036107005760008360070160026101000a81548160ff021916908315150217905550338360070160036101000a81548173ffffffffffffffffffffffffffffffffffffffff021916908373ffffffffffffffffffffffffffffffffffffffff160217905550847f4dc08ce212d967a2959e5901a545b00fd4f86c108a0de62a8d906b7b0793c6d6336040516106f79190612171565b60405180910390a25b60068160ff1614610762578260010160009054906101000a900460ff1660018460070160019054906101000a900460ff1661073b91906121bb565b610745919061221f565b8360070160016101000a81548160ff021916908360ff1602179055505b5050505050565b600481565b60036020528160005260406000206020528060005260406000206000915091505080600001805461079e9061227f565b80601f01602080910402602001604051908101604052809291908181526020018280546107ca9061227f565b80156108175780601f106107ec57610100808354040283529160200191610817565b820191906000526020600020905b8154815290600101906020018083116107fa57829003601f168201915b5050505050908060010160009054906101000a900460ff16908060040154908060050160009054906101000a900473ffffffffffffffffffffffffffffffffffffffff16905084565b600681565b6060600060606000806003600088815260200190815260200160002060008773ffffffffffffffffffffffffffffffffffffffff1673ffffffffffffffffffffffffffffffffffffffff1681526020019081526020016000209050806000018160010160009054906101000a900460ff168260030183600401548380546108eb9061227f565b80601f01602080910402602001604051908101604052809291908181526020018280546109179061227f565b80156109645780601f1061093957610100808354040283529160200191610964565b820191906000526020600020905b81548152906001019060200180831161094757829003601f168201915b50505050509350818054806020026020016040519081016040528092919081815260200182805480156109b657602002820191906000526020600020905b8154815260200190600101908083116109a2575b5050505050915094509450945094505092959194509250565b60005481565b603481565b600460003373ffffffffffffffffffffffffffffffffffffffff1673ffffffffffffffffffffffffffffffffffffffff168152602001908152602001600020600082815260200190815260200160002060009054906101000a900460ff1615610a78576040517f08c379a0000000000000000000000000000000000000000000000000000000008152600401610a6f906122fc565b60405180910390fd5b60006002600083815260200190815260200160002090508060070160029054906101000a900460ff16610ae0576040517f08c379a0000000000000000000000000000000000000000000000000000000008152600401610ad79061208d565b60405180910390fd5b80600201805490508160070160009054906101000a900460ff1660ff1610610b3d576040517f08c379a0000000000000000000000000000000000000000000000000000000008152600401610b3490612368565b60405180910390fd5b60006003600084815260200190815260200160002060003373ffffffffffffffffffffffffffffffffffffffff1673ffffffffffffffffffffffffffffffffffffffff1681526020019081526020016000209050816002018260070160009054906101000a900460ff1660ff1681548110610bbb57610bba6120ad565b5b90600052602060002001816000019081610bd5919061255f565b50338160050160006101000a81548173ffffffffffffffffffffffffffffffffffffffff021916908373ffffffffffffffffffffffffffffffffffffffff16021790555060018160010160006101000a81548160ff021916908315150217905550600467ffffffffffffffff811115610c5157610c50611cc5565b5b604051908082528060200260200182016040528015610c7f5781602001602082028036833780820191505090505b50816002019080519060200190610c97929190611659565b50600467ffffffffffffffff811115610cb357610cb2611cc5565b5b604051908082528060200260200182016040528015610ce15781602001602082028036833780820191505090505b50816003019080519060200190610cf99291906116ff565b5060005b6004811015610d54576001826002018281548110610d1e57610d1d6120ad565b5b90600052602060002090602091828204019190066101000a81548160ff0219169083151502179055508080600101915050610cfd565b5033826003018360070160009054906101000a900460ff1660ff1660048110610d8057610d7f6120ad565b5b0160006101000a81548173ffffffffffffffffffffffffffffffffffffffff021916908373ffffffffffffffffffffffffffffffffffffffff16021790555081600701600081819054906101000a900460ff1680929190610de090612647565b91906101000a81548160ff021916908360ff1602179055505081600101600081819054906101000a900460ff1680929190610e1a90612647565b91906101000a81548160ff021916908360ff160217905550506001600460003373ffffffffffffffffffffffffffffffffffffffff1673ffffffffffffffffffffffffffffffffffffffff168152602001908152602001600020600085815260200190815260200160002060006101000a81548160ff021916908315150217905550827fa259bab503f65f6ae62d4f6a412b41b967799a284f69f21ba61362cf04e5eafa3383600001604051610ed19291906126f4565b60405180910390a2505050565b6000600482511115610f25576040517f08c379a0000000000000000000000000000000000000000000000000000000008152600401610f1c90612770565b60405180910390fd5b600080815480929190610f3790612790565b9190505550600060026000805481526020019081526020016000209050600054816000018190555082816002019080519060200190610f7792919061174c565b5060018160070160026101000a81548160ff0219169083151502179055506000547fc3e0f84839dc888c892a013d10c8f9d6dc05a21a879d0ce468ca558013e9121c33604051610fc79190612171565b60405180910390a2600054915050919050565b60008060008060006002600087815260200190815260200160002090508060010160009054906101000a900460ff168160070160019054906101000a900460ff168260070160029054906101000a900460ff168360070160039054906101000a900473ffffffffffffffffffffffffffffffffffffffff169450945094509450509193509193565b60008042443360015460405160200161107e9493929190612841565b6040516020818303038152906040528051906020012060001c9050600160008154809291906110ac90612790565b9190505550600060016006836110c2919061288f565b6110cc91906121bb565b9050809250505090565b6000826002018260ff16815481106110f1576110f06120ad565b5b90600052602060002090602091828204019190066101000a81548160ff021916908315150217905550600061112684336112f3565b905080836003018360ff1681548110611142576111416120ad565b5b9060005260206000200181905550837f2a25c8fe22c2986fba74a491d4a497f84d420c7e84f3274c71fda8bf2a60d14333600084604051611185939291906128fb565b60405180910390a250505050565b6000836003018360ff16815481106111ae576111ad6120ad565b5b90600052602060002001549050600060348360ff16836111ce9190612932565b6111d8919061288f565b905060006111e687336112f3565b905080831080156111f75750808210155b801561120e575060068161120b9190612932565b82105b1561127a5785600401600081548092919061122890612790565b91905055507fffffffffffffffffffffffffffffffffffffffffffffffffffffffffffffffff866003018660ff1681548110611267576112666120ad565b5b90600052602060002001819055506112ae565b81866003018660ff1681548110611294576112936120ad565b5b90600052602060002001819055506112ad87338461140e565b5b867f2a25c8fe22c2986fba74a491d4a497f84d420c7e84f3274c71fda8bf2a60d1433385856040516112e293929190612966565b60405180910390a250505050505050565b60008060026000858152602001908152602001600020905060005b8160010160009054906101000a900460ff1660ff168160ff1610156113cc578373ffffffffffffffffffffffffffffffffffffffff16826003018260ff166004811061135d5761135c6120ad565b5b0160009054906101000a900473ffffffffffffffffffffffffffffffffffffffff1673ffffffffffffffffffffffffffffffffffffffff16036113bf57600460346113a8919061299d565b8160ff166113b691906129ce565b92505050611408565b808060010191505061130e565b506040517f08c379a00000000000000000000000000000000000000000000000000000000081526004016113ff90612a5c565b60405180910390fd5b92915050565b600060026000858152602001908152602001600020905060005b8160010160009054906101000a900460ff1660ff168160ff161015611652576000826003018260ff1660048110611462576114616120ad565b5b0160009054906101000a900473ffffffffffffffffffffffffffffffffffffffff1690508473ffffffffffffffffffffffffffffffffffffffff168173ffffffffffffffffffffffffffffffffffffffff16146116445760006003600088815260200190815260200160002060008373ffffffffffffffffffffffffffffffffffffffff1673ffffffffffffffffffffffffffffffffffffffff168152602001908152602001600020905060005b60048160ff16101561164157816002018160ff1681548110611535576115346120ad565b5b90600052602060002090602091828204019190069054906101000a900460ff16158015611584575085826003018260ff1681548110611577576115766120ad565b5b9060005260206000200154145b15611634576001826002018260ff16815481106115a4576115a36120ad565b5b90600052602060002090602091828204019190066101000a81548160ff0219169083151502179055506000826003018260ff16815481106115e8576115e76120ad565b5b9060005260206000200181905550877f2a25c8fe22c2986fba74a491d4a497f84d420c7e84f3274c71fda8bf2a60d1438488600060405161162b93929190612a7c565b60405180910390a25b8080600101915050611510565b50505b508080600101915050611428565b5050505050565b82805482825590600052602060002090601f016020900481019282156116ee5791602002820160005b838211156116bf57835183826101000a81548160ff0219169083151502179055509260200192600101602081600001049283019260010302611682565b80156116ec5782816101000a81549060ff02191690556001016020816000010492830192600103026116bf565b505b5090506116fb91906117a5565b5090565b82805482825590600052602060002090810192821561173b579160200282015b8281111561173a57825182559160200191906001019061171f565b5b50905061174891906117a5565b5090565b828054828255906000526020600020908101928215611794579160200282015b828111156117935782518290816117839190612ab3565b509160200191906001019061176c565b5b5090506117a191906117c2565b5090565b5b808211156117be5760008160009055506001016117a6565b5090565b5b808211156117e257600081816117d991906117e6565b506001016117c3565b5090565b5080546117f29061227f565b6000825580601f106118045750611823565b601f01602090049060005260206000209081019061182291906117a5565b5b50565b6000604051905090565b600080fd5b600080fd5b600073ffffffffffffffffffffffffffffffffffffffff82169050919050565b60006118658261183a565b9050919050565b6118758161185a565b811461188057600080fd5b50565b6000813590506118928161186c565b92915050565b6000819050919050565b6118ab81611898565b81146118b657600080fd5b50565b6000813590506118c8816118a2565b92915050565b600080604083850312156118e5576118e4611830565b5b60006118f385828601611883565b9250506020611904858286016118b9565b9150509250929050565b60008115159050919050565b6119238161190e565b82525050565b600060208201905061193e600083018461191a565b92915050565b60006020828403121561195a57611959611830565b5b6000611968848285016118b9565b91505092915050565b61197a81611898565b82525050565b600060ff82169050919050565b61199681611980565b82525050565b6119a58161185a565b82525050565b600060c0820190506119c06000830189611971565b6119cd602083018861198d565b6119da604083018761198d565b6119e7606083018661198d565b6119f4608083018561191a565b611a0160a083018461199c565b979650505050505050565b611a1581611980565b8114611a2057600080fd5b50565b600081359050611a3281611a0c565b92915050565b60008060408385031215611a4f57611a4e611830565b5b6000611a5d858286016118b9565b9250506020611a6e85828601611a23565b9150509250929050565b6000602082019050611a8d6000830184611971565b92915050565b60008060408385031215611aaa57611aa9611830565b5b6000611ab8858286016118b9565b9250506020611ac985828601611883565b9150509250929050565b600081519050919050565b600082825260208201905092915050565b60005b83811015611b0d578082015181840152602081019050611af2565b60008484015250505050565b6000601f19601f8301169050919050565b6000611b3582611ad3565b611b3f8185611ade565b9350611b4f818560208601611aef565b611b5881611b19565b840191505092915050565b60006080820190508181036000830152611b7d8187611b2a565b9050611b8c602083018661191a565b611b996040830185611971565b611ba6606083018461199c565b95945050505050565b600081519050919050565b600082825260208201905092915050565b6000819050602082019050919050565b611be481611898565b82525050565b6000611bf68383611bdb565b60208301905092915050565b6000602082019050919050565b6000611c1a82611baf565b611c248185611bba565b9350611c2f83611bcb565b8060005b83811015611c60578151611c478882611bea565b9750611c5283611c02565b925050600181019050611c33565b5085935050505092915050565b60006080820190508181036000830152611c878187611b2a565b9050611c96602083018661191a565b8181036040830152611ca88185611c0f565b9050611cb76060830184611971565b95945050505050565b600080fd5b7f4e487b7100000000000000000000000000000000000000000000000000000000600052604160045260246000fd5b611cfd82611b19565b810181811067ffffffffffffffff82111715611d1c57611d1b611cc5565b5b80604052505050565b6000611d2f611826565b9050611d3b8282611cf4565b919050565b600067ffffffffffffffff821115611d5b57611d5a611cc5565b5b602082029050602081019050919050565b600080fd5b600080fd5b600067ffffffffffffffff821115611d9157611d90611cc5565b5b611d9a82611b19565b9050602081019050919050565b82818337600083830152505050565b6000611dc9611dc484611d76565b611d25565b905082815260208101848484011115611de557611de4611d71565b5b611df0848285611da7565b509392505050565b600082601f830112611e0d57611e0c611cc0565b5b8135611e1d848260208601611db6565b91505092915050565b6000611e39611e3484611d40565b611d25565b90508083825260208201905060208402830185811115611e5c57611e5b611d6c565b5b835b81811015611ea357803567ffffffffffffffff811115611e8157611e80611cc0565b5b808601611e8e8982611df8565b85526020850194505050602081019050611e5e565b5050509392505050565b600082601f830112611ec257611ec1611cc0565b5b8135611ed2848260208601611e26565b91505092915050565b600060208284031215611ef157611ef0611830565b5b600082013567ffffffffffffffff811115611f0f57611f0e611835565b5b611f1b84828501611ead565b91505092915050565b6000608082019050611f39600083018761198d565b611f46602083018661198d565b611f53604083018561191a565b611f60606083018461199c565b95945050505050565b7f4e6f7420696e2067616d65000000000000000000000000000000000000000000600082015250565b6000611f9f600b83611ade565b9150611faa82611f69565b602082019050919050565b60006020820190508181036000830152611fce81611f92565b9050919050565b7f496e76616c696420706965636520696e64657800000000000000000000000000600082015250565b600061200b601383611ade565b915061201682611fd5565b602082019050919050565b6000602082019050818103600083015261203a81611ffe565b9050919050565b7f47616d65206e6f74206163746976650000000000000000000000000000000000600082015250565b6000612077600f83611ade565b915061208282612041565b602082019050919050565b600060208201905081810360008301526120a68161206a565b9050919050565b7f4e487b7100000000000000000000000000000000000000000000000000000000600052603260045260246000fd5b7f4e6f7420796f7572207475726e00000000000000000000000000000000000000600082015250565b6000612112600d83611ade565b915061211d826120dc565b602082019050919050565b6000602082019050818103600083015261214181612105565b9050919050565b600060408201905061215d600083018561199c565b61216a602083018461198d565b9392505050565b6000602082019050612186600083018461199c565b92915050565b7f4e487b7100000000000000000000000000000000000000000000000000000000600052601160045260246000fd5b60006121c682611980565b91506121d183611980565b9250828201905060ff8111156121ea576121e961218c565b5b92915050565b7f4e487b7100000000000000000000000000000000000000000000000000000000600052601260045260246000fd5b600061222a82611980565b915061223583611980565b925082612245576122446121f0565b5b828206905092915050565b7f4e487b7100000000000000000000000000000000000000000000000000000000600052602260045260246000fd5b6000600282049050600182168061229757607f821691505b6020821081036122aa576122a9612250565b5b50919050565b7f416c7265616479206a6f696e6564000000000000000000000000000000000000600082015250565b60006122e6600e83611ade565b91506122f1826122b0565b602082019050919050565b60006020820190508181036000830152612315816122d9565b9050919050565b7f47616d652069732066756c6c0000000000000000000000000000000000000000600082015250565b6000612352600c83611ade565b915061235d8261231c565b602082019050919050565b6000602082019050818103600083015261238181612345565b9050919050565b6000815490506123978161227f565b9050919050565b60008190508160005260206000209050919050565b60008190508160005260206000209050919050565b60006020601f8301049050919050565b600082821b905092915050565b6000600883026124157fffffffffffffffffffffffffffffffffffffffffffffffffffffffffffffffff826123d8565b61241f86836123d8565b95508019841693508086168417925050509392505050565b6000819050919050565b600061245c61245761245284611898565b612437565b611898565b9050919050565b6000819050919050565b61247683612441565b61248a61248282612463565b8484546123e5565b825550505050565b600090565b61249f612492565b6124aa81848461246d565b505050565b5b818110156124ce576124c3600082612497565b6001810190506124b0565b5050565b601f821115612513576124e48161239e565b6124ed846123c8565b810160208510156124fc578190505b612510612508856123c8565b8301826124af565b50505b505050565b600082821c905092915050565b600061253660001984600802612518565b1980831691505092915050565b600061254f8383612525565b9150826002028217905092915050565b81810361256d575050612645565b61257682612388565b67ffffffffffffffff81111561258f5761258e611cc5565b5b612599825461227f565b6125a48282856124d2565b6000601f8311600181146125d357600084156125c1578287015490505b6125cb8582612543565b86555061263e565b601f1984166125e1876123b3565b96506125ec8661239e565b60005b82811015612614578489015482556001820191506001850194506020810190506125ef565b86831015612631578489015461262d601f891682612525565b8355505b6001600288020188555050505b5050505050505b565b600061265282611980565b915060ff82036126655761266461218c565b5b600182019050919050565b6000815461267d8161227f565b6126878186611ade565b945060018216600081146126a257600181146126b8576126eb565b60ff1983168652811515602002860193506126eb565b6126c18561239e565b60005b838110156126e3578154818901526001820191506020810190506126c4565b808801955050505b50505092915050565b6000604082019050612709600083018561199c565b818103602083015261271b8184612670565b90509392505050565b7f546f6f206d616e7920636f6c6f72730000000000000000000000000000000000600082015250565b600061275a600f83611ade565b915061276582612724565b602082019050919050565b600060208201905081810360008301526127898161274d565b9050919050565b600061279b82611898565b91507fffffffffffffffffffffffffffffffffffffffffffffffffffffffffffffffff82036127cd576127cc61218c565b5b600182019050919050565b6000819050919050565b6127f36127ee82611898565b6127d8565b82525050565b60008160601b9050919050565b6000612811826127f9565b9050919050565b600061282382612806565b9050919050565b61283b6128368261185a565b612818565b82525050565b600061284d82876127e2565b60208201915061285d82866127e2565b60208201915061286d828561282a565b60148201915061287d82846127e2565b60208201915081905095945050505050565b600061289a82611898565b91506128a583611898565b9250826128b5576128b46121f0565b5b828206905092915050565b6000819050919050565b60006128e56128e06128db846128c0565b612437565b611898565b9050919050565b6128f5816128ca565b82525050565b6000606082019050612910600083018661199c565b61291d60208301856128ec565b61292a6040830184611971565b949350505050565b600061293d82611898565b915061294883611898565b92508282019050808211156129605761295f61218c565b5b92915050565b600060608201905061297b600083018661199c565b6129886020830185611971565b6129956040830184611971565b949350505050565b60006129a882611898565b91506129b383611898565b9250826129c3576129c26121f0565b5b828204905092915050565b60006129d982611898565b91506129e483611898565b92508282026129f281611898565b91508282048414831517612a0957612a0861218c565b5b5092915050565b7f506c61796572206e6f7420666f756e6400000000000000000000000000000000600082015250565b6000612a46601083611ade565b9150612a5182612a10565b602082019050919050565b60006020820190508181036000830152612a7581612a39565b9050919050565b6000606082019050612a91600083018661199c565b612a9e6020830185611971565b612aab60408301846128ec565b949350505050565b612abc82611ad3565b67ffffffffffffffff811115612ad557612ad4611cc5565b5b612adf825461227f565b612aea8282856124d2565b600060209050601f831160018114612b1d5760008415612b0b578287015190505b612b158582612543565b865550612b7d565b601f198416612b2b8661239e565b60005b82811015612b5357848901518255600182019150602085019450602081019050612b2e565b86831015612b705784890151612b6c601f891682612525565b8355505b6001600288020188555050505b50505050505056fea264697066735822122047d077bedea2c97f3155fba29eae6fc494867283d84c242d0a65f42c8c5859e364736f6c63430008180033",
  "linkReferences": {},
  "deployedLinkReferences": {}
}